{
  "_format": "hh-sol-artifact-1",
  "contractName": "RedPacket",
  "sourceName": "contracts/RedPacket.sol",
  "abi": [
    {
      "inputs": [],
      "stateMutability": "nonpayable",
      "type": "constructor"
    },
    {
      "anonymous": false,
      "inputs": [
        {
          "indexed": true,
          "internalType": "address",
          "name": "creator",
          "type": "address"
        },
        {
          "indexed": false,
          "internalType": "uint256",
          "name": "amount",
          "type": "uint256"
        },
        {
          "indexed": false,
          "internalType": "uint256",
          "name": "count",
          "type": "uint256"
        },
        {
          "indexed": false,
          "internalType": "bool",
          "name": "isEqual",
          "type": "bool"
        }
      ],
      "name": "RedPacketCreated",
      "type": "event"
    },
    {
      "anonymous": false,
      "inputs": [
        {
          "indexed": true,
          "internalType": "address",
          "name": "grabber",
          "type": "address"
        },
        {
          "indexed": false,
          "internalType": "uint256",
          "name": "amount",
          "type": "uint256"
        }
      ],
      "name": "RedPacketGrabbed",
      "type": "event"
    },
    {
      "inputs": [],
      "name": "count",
      "outputs": [
        {
          "internalType": "uint256",
          "name": "",
          "type": "uint256"
        }
      ],
      "stateMutability": "view",
      "type": "function"
    },
    {
      "inputs": [
        {
          "internalType": "uint256",
          "name": "c",
          "type": "uint256"
        },
        {
          "internalType": "bool",
          "name": "_isEqual",
          "type": "bool"
        }
      ],
      "name": "createRedPacket",
      "outputs": [],
      "stateMutability": "payable",
      "type": "function"
    },
    {
      "inputs": [],
      "name": "getBalance",
      "outputs": [
        {
          "internalType": "uint256",
          "name": "",
          "type": "uint256"
        }
      ],
      "stateMutability": "view",
      "type": "function"
    },
    {
      "inputs": [],
      "name": "getRedPacketInfo",
      "outputs": [
        {
          "internalType": "address",
          "name": "creator",
          "type": "address"
        },
        {
          "internalType": "uint256",
          "name": "remaining",
          "type": "uint256"
        },
        {
          "internalType": "uint256",
          "name": "remainingCount",
          "type": "uint256"
        },
        {
          "internalType": "bool",
          "name": "equalDistribution",
          "type": "bool"
        },
        {
          "internalType": "bool",
          "name": "initialized",
          "type": "bool"
        }
      ],
      "stateMutability": "view",
      "type": "function"
    },
    {
      "inputs": [],
      "name": "grabRedPacket",
      "outputs": [],
      "stateMutability": "nonpayable",
      "type": "function"
    },
    {
      "inputs": [
        {
          "internalType": "address",
          "name": "user",
          "type": "address"
        }
      ],
      "name": "hasGrabbed",
      "outputs": [
        {
          "internalType": "bool",
          "name": "",
          "type": "bool"
        }
      ],
      "stateMutability": "view",
      "type": "function"
    },
    {
      "inputs": [],
      "name": "isEqual",
      "outputs": [
        {
          "internalType": "bool",
          "name": "",
          "type": "bool"
        }
      ],
      "stateMutability": "view",
      "type": "function"
    },
    {
      "inputs": [
        {
          "internalType": "address",
          "name": "",
          "type": "address"
        }
      ],
      "name": "isGrabbed",
      "outputs": [
        {
          "internalType": "bool",
          "name": "",
          "type": "bool"
        }
      ],
      "stateMutability": "view",
      "type": "function"
    },
    {
      "inputs": [],
      "name": "isInitialized",
      "outputs": [
        {
          "internalType": "bool",
          "name": "",
          "type": "bool"
        }
      ],
      "stateMutability": "view",
      "type": "function"
    },
    {
      "inputs": [],
      "name": "totalAmount",
      "outputs": [
        {
          "internalType": "uint256",
          "name": "",
          "type": "uint256"
        }
      ],
      "stateMutability": "view",
      "type": "function"
    },
    {
      "inputs": [],
      "name": "yideng",
      "outputs": [
        {
          "internalType": "address payable",
          "name": "",
          "type": "address"
        }
      ],
      "stateMutability": "view",
      "type": "function"
    }
  ],
  "bytecode": "0x608060405234801561001057600080fd5b50610833806100206000396000f3fe60806040526004361061009c5760003560e01c80635cd52e22116100645780635cd52e22146101525780637f65872a1461018a5780639faf4537146101c3578063acbe84521461021b578063bcb8f8f814610235578063c4712e211461024a57600080fd5b806306661abd146100a15780630ec0afc9146100ca57806312065fe01461010a5780631a39d8ef1461011d578063392e53cd14610133575b600080fd5b3480156100ad57600080fd5b506100b760025481565b6040519081526020015b60405180910390f35b3480156100d657600080fd5b506100fa6100e53660046106ea565b60046020526000908152604090205460ff1681565b60405190151581526020016100c1565b34801561011657600080fd5b50476100b7565b34801561012957600080fd5b506100b760015481565b34801561013f57600080fd5b506003546100fa90610100900460ff1681565b34801561015e57600080fd5b50600054610172906001600160a01b031681565b6040516001600160a01b0390911681526020016100c1565b34801561019657600080fd5b506100fa6101a53660046106ea565b6001600160a01b031660009081526004602052604090205460ff1690565b3480156101cf57600080fd5b50600054600154600254600354604080516001600160a01b03909516855260208501939093529183015260ff80821615156060840152610100909104161515608082015260a0016100c1565b34801561022757600080fd5b506003546100fa9060ff1681565b61024861024336600461071a565b61025f565b005b34801561025657600080fd5b506102486103c1565b600354610100900460ff16156102bc5760405162461bcd60e51b815260206004820152601d60248201527f5265645061636b657420616c726561647920696e697469616c697a656400000060448201526064015b60405180910390fd5b600034116102fe5760405162461bcd60e51b815260206004820152600f60248201526e0616d6f756e74206d757374203e203608c1b60448201526064016102b3565b6000821161033f5760405162461bcd60e51b815260206004820152600e60248201526d0636f756e74206d757374203e20360941b60448201526064016102b3565b600080546001600160a01b0319163390811790915560028390556003805434600181905561ff001985151590811661ffff19909316929092176101001790925560408051928352602083018690528201527f0b3fa1200abdbe61913a255af495037bc9929ea74fa225e0513a76a0d01e2f8e9060600160405180910390a25050565b600354610100900460ff166104185760405162461bcd60e51b815260206004820152601960248201527f5265645061636b6574206e6f7420696e697469616c697a65640000000000000060448201526064016102b3565b60006002541161045b5760405162461bcd60e51b815260206004820152600e60248201526d0636f756e74206d757374203e20360941b60448201526064016102b3565b6000600154116104a45760405162461bcd60e51b81526020600482015260146024820152730746f74616c416d6f756e74206d757374203e20360641b60448201526064016102b3565b3360009081526004602052604090205460ff16156104f65760405162461bcd60e51b815260206004820152600f60248201526e1e5bdd481a185d994819dc98589959608a1b60448201526064016102b3565b336000908152600460205260408120805460ff19166001908117909155600254900361055b5750600180546000918290556040519091339183156108fc0291849190818181858888f19350505050158015610555573d6000803e3d6000fd5b5061069d565b60035460ff16156105bc57600254600154610576919061077b565b9050806001600082825461058a919061078f565b9091555050604051339082156108fc029083906000818181858888f19350505050158015610555573d6000803e3d6000fd5b600080546002546001546040516bffffffffffffffffffffffff1933606090811b821660208401529490941b90931660348401526048830191909152606882015242608882015260089060a8016040516020818303038152906040528051906020012060001c61062c91906107a8565b6106379060016107bc565b9050600a8160015461064991906107cf565b610653919061077b565b604051909250339083156108fc029084906000818181858888f19350505050158015610683573d6000803e3d6000fd5b508160016000828254610696919061078f565b9091555050505b600280549060006106ad836107e6565b909155505060405181815233907f5443873cb1a04fea5858c73589f808b9bd34b9fdfe6d29edf18de0e6a8093d5f9060200160405180910390a250565b6000602082840312156106fc57600080fd5b81356001600160a01b038116811461071357600080fd5b9392505050565b6000806040838503121561072d57600080fd5b823591506020830135801515811461074457600080fd5b809150509250929050565b634e487b7160e01b600052601260045260246000fd5b634e487b7160e01b600052601160045260246000fd5b60008261078a5761078a61074f565b500490565b818103818111156107a2576107a2610765565b92915050565b6000826107b7576107b761074f565b500690565b808201808211156107a2576107a2610765565b80820281158282048414176107a2576107a2610765565b6000816107f5576107f5610765565b50600019019056fea2646970667358221220bc8ae9a746478a5e79395b3ac4b457a1428a46f5d9485706ba5456309f5c036864736f6c63430008130033",
  "linkReferences": {},
  "deployedLinkReferences": {}
}